:100000000C9462000C948A000C948A000C948A0070
:100010000C948A000C948A000C948A000C948A0038
:100020000C948A000C948A000C948A000C948A0028
:100030000C948A000C948A000C948A000C948A0018
:100040000C9455050C948A000C9422020C945402D2
:100050000C948A000C948A000C948A000C948A00F8
:100060000C948A000C948A00000000080002010031
:100070000003040700000000000000000102040863
:100080001020408001020408102001020408102002
:10009000040404040404040402020202020203032E
:1000A00003030303000000002300260029000000D2
:1000B0000000250028002B0000000000240027007D
:1000C0002A00140711241FBECFEFD8E0DEBFCDBF3A
:1000D00011E0A0E0B1E0E0EAF3E102C005900D928A
:1000E000AE36B107D9F722E0AEE6B1E001C01D920D
:1000F000A431B207E1F710E0C2E6D0E004C02197D6
:10010000FE010E94C309C136D107C9F70E945607F4
:100110000C94CE090C94000061E08DE00E947B06F7
:1001200026E040E855E260E070E08EE691E00E9453
:100130009B0168EE73E080E090E00E94D00560E0F3
:1001400071E08EE691E00C941B0361E08DE00E946B
:10015000B70668EC70E080E090E00E94D00560E0B7
:100160008DE00E94B70668EC70E080E090E00E94AD
:10017000D00561E371E08EE691E00C941B03FC0175
:10018000918D228D892F90E0805C9F4F821B910979
:100190008F7399270895FC01918D828D981731F006
:1001A000828DE80FF11D858D90E008958FEF9FEF10
:1001B0000895FC01918D828D981761F0828DDF0189
:1001C000A80FB11D5D968C91928D9F5F9F73928F4A
:1001D00090E008958FEF9FEF0895FC01538D448DBB
:1001E000252F30E0842F90E0821B930B541710F0E2
:1001F000CF960895019708958AE792E0892B49F0F8
:1002000080E090E0892B29F00E947A0281110C9401
:1002100000000895FC01848DDF01A80FB11DA35AD1
:10022000BF4F2C91848D90E001968F739927848F16
:10023000A689B7892C93A089B1898C918370806439
:100240008C93938D848D981306C00288F389E02DDA
:1002500080818F7D80830895EF92FF920F931F938B
:10026000CF93DF93EC0181E0888F9B8D8C8D981369
:1002700005C0E889F989808185FD26C0F62E0B8DA1
:1002800010E00F5F1F4F0F731127E02E8C8DE812C7
:100290000CC00FB607FCFACFE889F989808185FF89
:1002A000F5CFCE010E940A01F1CF8B8DFE01E80F40
:1002B000F11DE35AFF4FF0829FB7F8940B8FEA8944
:1002C000FB89808180620AC09FB7F894EE89FF891C
:1002D0006083E889F98980818370806480839FBF0F
:1002E00081E090E0DF91CF911F910F91FF90EF900F
:1002F0000895CF93DF93EC01888D8823C9F0EA89B4
:10030000FB89808185FD05C0A889B9898C9186FD0E
:100310000FC00FB607FCF5CF808185FFF2CFA8890B
:10032000B9898C9185FFEDCFCE010E940A01E7CFFC
:10033000DF91CF910895CF92DF92EF92FF921F93BA
:10034000CF93DF93EC016A017B01122FE889F989D1
:1003500082E080834115514E61057105B1F060E086
:1003600079E08DE390E0A70196010E94A109DA01EE
:10037000C9010197A109B109B695A79597958795E8
:100380009C01211580E13807A8F0E889F9891082DD
:1003900060E874E88EE190E0A70196010E94A1094F
:1003A000DA01C9010197A109B109B695A7959795F9
:1003B00087959C01EC85FD853083EE85FF85208344
:1003C000188EEC89FD891083EA89FB898081806120
:1003D0008083EA89FB89808188608083EA89FB8940
:1003E000808180688083EA89FB8980818F7D80831A
:1003F000DF91CF911F91FF90EF90DF90CF90089504
:10040000CF93DF93EC01E881F9810680F781E02D3D
:100410000995EA89FB8980818F7E8083EA89FB893F
:100420008081877F8083EA89FB8980818F778083C1
:10043000EA89FB8980818F7D80838A8D898FDF9116
:10044000CF9108951F920F920FB60F9211242F9300
:100450008F939F93EF93FF93E0917E01F0917F0143
:100460008081E0918401F091850182FD12C090812C
:10047000809187018F5F8F7320918801821751F0DF
:10048000E0918701F0E0E259FE4F958F809387015C
:1004900001C08081FF91EF919F918F912F910F90DB
:1004A0000FBE0F901F9018951F920F920FB60F92CC
:1004B00011242F933F934F935F936F937F938F9369
:1004C0009F93AF93BF93EF93FF938EE691E00E94CB
:1004D0000A01FF91EF91BF91AF919F918F917F9111
:1004E0006F915F914F913F912F910F900FBE0F90A1
:1004F0001F9018958EE691E00E94BF0021E0892BA5
:1005000009F420E0822F0895CF92DF92EF92FF92BC
:100510000F931F93CF93DF936C017A018B01C0E09F
:10052000D0E0CE15DF0581F0D8016D918D01D601A7
:10053000ED91FC910190F081E02DC6010995892B88
:1005400011F02196EECF7E01C701DF91CF911F916F
:100550000F91FF90EF90DF90CF900895EF92FF9270
:100560000F931F93CF93DF938C017B01C0E0D0E00A
:10057000F701EC0FFD1F6491662361F0D801ED9146
:10058000FC910190F081E02DC8010995892B11F0B3
:100590002196EECFCE01DF91CF911F910F91FF9069
:1005A000EF900895DB0114964D915C9115976D9134
:1005B0007C91DC01ED91FC910280F381E02D0994A6
:1005C0000C944107DC01ED91FC910190F081E02D4C
:1005D0000994DB01ED91FC9111970190F081E02DE0
:1005E000BC01CD01099462E571E00C9441070F93C1
:1005F0001F93CF93DF93EC010E94AE028C01CE01DA
:100600000E94F302800F911FDF91CF911F910F91F4
:1006100008950F931F93CF93DF93EC010E94D202B2
:100620008C01CE010E94F302800F911FDF91CF91C8
:100630001F910F9108950F931F93CF93DF93EC01B8
:100640000E9441078C01CE010E94F302800F911F8E
:10065000DF91CF911F910F9108950F931F93CF9327
:10066000DF93EC010E94E2028C01CE010E94F302B2
:10067000800F911FDF91CF911F910F9108950F93DC
:100680001F93CF93DF93EC010E94E9028C01CE010E
:100690000E94F302800F911FDF91CF911F910F9164
:1006A00008958F929F92AF92BF92EF92FF920F9315
:1006B0001F93CF93DF93CDB7DEB7A1970FB6F89412
:1006C000DEBF0FBECDBF7C01FA01CB0119A22230E3
:1006D00008F42AE08E010F5D1F4F822E912CA12C71
:1006E000B12CBF01A50194010E94A109F901CA0121
:1006F000015011096A3014F4605D01C0695CD801D1
:100700006C93232B242B252B61F7B801C7010E9482
:100710004107A1960FB6F894DEBF0FBECDBFDF91A3
:10072000CF911F910F91FF90EF90BF90AF909F904E
:100730008F9008952115310541F4DC01ED91FC9174
:100740000190F081E02D642F09940C9451039A01DB
:10075000462F50E060E070E00C949A030F931F93D3
:10076000CF93DF93EC010E94A7038C01CE010E947E
:10077000F302800F911FDF91CF911F910F91089588
:100780009A01AB0160E070E00C949A030F931F9301
:10079000CF93DF93EC010E94C0038C01CE010E9435
:1007A000F302800F911FDF91CF911F910F91089558
:1007B0000F931F93CF93DF93EC010E949A038C0158
:1007C000CE010E94F302800F911FDF91CF911F9104
:1007D0000F910895CF92DF92EF92FF920F931F93A4
:1007E000CF93DF932115310581F4DC01ED91FC916C
:1007F0000190F081E02D642FDF91CF911F910F9137
:10080000FF90EF90DF90CF9009942A30310501F5E9
:1008100077FF1DC06A017B01EC016DE20E94E202DC
:100820008C0144275527BA014C195D096E097F09CF
:100830002AE0CE010E945103800F911FDF91CF91DA
:100840001F910F91FF90EF90DF90CF9008952AE0D5
:10085000DF91CF911F910F91FF90EF90DF90CF909C
:100860000C9451039A01AB01770F660B770B0C9434
:10087000EA030F931F93CF93DF93EC010E9432049E
:100880008C01CE010E94F302800F911FDF91CF9166
:100890001F910F9108950F931F93CF93DF93EC0156
:1008A0000E94EA038C01CE010E94F302800F911F87
:1008B000DF91CF911F910F9108957F928F929F9218
:1008C000AF92BF92CF92DF92EF92FF920F931F935E
:1008D000CF93DF938C016A017B01722E9A01AB01E9
:1008E000C701B6010E949C09882319F065E571E0F3
:1008F00027C046015701E894B7F82FEF3FEF4FE7C5
:100900005FE7C501B4010E949C0981110DC02FEF62
:100910003FEF4FE75FE7C501B4010E94D207181609
:100920001CF469E571E00CC02FEF3FEF4FE75FE487
:10093000C701B6010E942A09181694F46DE571E00A
:10094000C801DF91CF911F910F91FF90EF90DF9041
:10095000CF90BF90AF909F908F907F900C94410765
:100960002FEF3FEF4FE75FECC701B6010E94D207C0
:1009700087FDE4CF20E030E0A901C701B6010E9465
:10098000D20787FF0AC06DE2C8010E94E202EC01B3
:10099000F7FAF094F7F8F09402C0C0E0D0E0B12C80
:1009A00060E070E080E09FE37B1441F020E030E005
:1009B00040E251E40E94D707B394F6CFA701960115
:1009C0000E9466076B017C010E9449084B015C0193
:1009D0002AE0AB01BC01C8010E945103C80FD91F16
:1009E0007720B9F1C501B4010E9478089B01AC01E0
:1009F000C701B6010E9465076B017C016EE2C80168
:100A00000E94E202C80FD91F20E030E040E251E42A
:100A1000C701B6010E942F094B015C010E944908E1
:100A20006B017C014AE050E0C8010E94C003C80F7E
:100A3000D91FB60180E090E00E9478089B01AC01CC
:100A4000C501B4010E9465076B017C017A947110A5
:100A5000DBCFCE01DF91CF911F910F91FF90EF90EF
:100A6000DF90CF90BF90AF909F908F907F90089530
:100A70000C945D040F931F93CF93DF93EC010E94BE
:100A80005D048C01CE010E94F302800F911FDF9163
:100A9000CF911F910F9108950E94C9090E94C90921
:100AA00080E090E00895089508951F920F920FB688
:100AB0000F9211242F933F938F939F93AF93BF93E4
:100AC00080910B0290910C02A0910D02B0910E0248
:100AD0003091130223E0230F2D3720F40196A11D3E
:100AE000B11D05C026E8230F0296A11DB11D20935C
:100AF000130280930B0290930C02A0930D02B0930B
:100B00000E0280910F0290911002A0911102B091FB
:100B100012020196A11DB11D80930F029093100245
:100B2000A0931102B0931202BF91AF919F918F9148
:100B30003F912F910F900FBE0F901F9018952FB7D8
:100B4000F89460910B0270910C0280910D029091CB
:100B50000E022FBF08953FB7F89480910F02909135
:100B60001002A0911102B091120226B5A89B05C0F7
:100B70002F3F19F00196A11DB11D3FBFBA2FA92F1C
:100B8000982F8827820F911DA11DB11DBC01CD0199
:100B900042E0660F771F881F991F4A95D1F7089585
:100BA0008F929F92AF92BF92CF92DF92EF92FF927D
:100BB0006B017C010E94AB054B015C01C114D104A7
:100BC000E104F10401F10E940F070E94AB05DC0172
:100BD000CB0188199909AA09BB09883E9340A10550
:100BE000B10560F321E0C21AD108E108F10888EEEE
:100BF000880E83E0981EA11CB11CC114D104E1042D
:100C0000F10419F7DBCFFF90EF90DF90CF90BF900A
:100C1000AF909F908F9008958230910538F0880FA3
:100C2000991F880F991F05970197F1F708957894F8
:100C300084B5826084BD84B5816084BD85B58260E1
:100C400085BD85B5816085BDEEE6F0E0808181607F
:100C50008083E1E8F0E0108280818260808380817F
:100C600081608083E0E8F0E0808181608083E1EB57
:100C7000F0E0808184608083E0EBF0E0808181603F
:100C80008083EAE7F0E080818460808380818260F5
:100C900080838081816080838081806880831092DE
:100CA000C1000895833081F028F4813099F08230BA
:100CB000A1F008958730A9F08830B9F08430D1F4DC
:100CC000809180008F7D03C0809180008F7780931A
:100CD0008000089584B58F7702C084B58F7D84BD70
:100CE00008958091B0008F7703C08091B0008F7D10
:100CF0008093B0000895CF93DF9390E0FC01E45817
:100D0000FF4F2491FC01E057FF4F8491882361F14C
:100D100090E0880F991FFC01E854FF4FC591D491D2
:100D2000FC01E255FF4FA591B491611109C09FB735
:100D3000F8948881209582238883EC912E230BC020
:100D4000623061F49FB7F8948881322F3095832305
:100D50008883EC912E2B2C939FBF06C08FB7F894FD
:100D6000E8812E2B28838FBFDF91CF9108951F93A9
:100D7000CF93DF93282F30E0F901E859FF4F84919A
:100D8000F901E458FF4FD491F901E057FF4FC491A6
:100D9000CC23C1F0162F81110E945206EC2FF0E0F7
:100DA000EE0FFF1FE255FF4FA591B4919FB7F89446
:100DB000111104C08C91D095D82302C0EC91DE2B88
:100DC000DC939FBFDF91CF911F910895CF93DF9365
:100DD000282F30E0F901E859FF4F8491F901E458D8
:100DE000FF4FD491F901E057FF4FC491CC2391F00C
:100DF00081110E945206EC2FF0E0EE0FFF1FEC5520
:100E0000FF4FA591B491EC91ED2381E090E021F4A6
:100E100080E002C080E090E0DF91CF9108950895D6
:100E200080E090E008950895EEE6F1E013821282EA
:100E300088EE93E0A0E0B0E084839583A683B78337
:100E400084E491E09183808385EC90E095878487AA
:100E500084EC90E09787868780EC90E0918B808B84
:100E600081EC90E0938B828B82EC90E0958B848B6D
:100E700086EC90E0978B868B118E128E138E148EDB
:100E800008956115710579F0FB0101900020E9F7E3
:100E90003197AF01461B570BDC01ED91FC910280AD
:100EA000F381E02D099480E090E008950E941706F8
:100EB0000E9453050E948C00CCEFD0E00E94A50058
:100EC0002097E1F30E94FC00F9CF5058BB27AA27D6
:100ED0000E947D070C94F0080E94E20838F00E94FE
:100EE000E90820F039F49F3F19F426F40C94DF0848
:100EF0000EF4E095E7FB0C94D908E92F0E94010954
:100F000058F3BA17620773078407950720F079F43E
:100F1000A6F50C9423090EF4E0950B2EBA2FA02D04
:100F20000B01B90190010C01CA01A0011124FF2796
:100F3000591B99F0593F50F4503E68F11A16F04091
:100F4000A22F232F342F4427585FF3CF4695379590
:100F50002795A795F0405395C9F77EF41F16BA0B55
:100F6000620B730B840BBAF09150A1F0FF0FBB1F03
:100F7000661F771F881FC2F70EC0BA0F621F731F4C
:100F8000841F48F4879577956795B795F7959E3FA9
:100F900008F0B0CF9395880F08F09927EE0F97953A
:100FA000879508950E94B50808F481E008950E948D
:100FB000EB070C94F0080E94E90858F00E94E20840
:100FC00040F029F45F3F29F00C94D90851110C949A
:100FD00024090C94DF080E94010968F39923B1F3F6
:100FE000552391F3951B550BBB27AA27621773074F
:100FF000840738F09F5F5F4F220F331F441FAA1FE3
:10100000A9F335D00E2E3AF0E0E832D0915050409E
:10101000E695001CCAF72BD0FE2F29D0660F771F4C
:10102000881FBB1F261737074807AB07B0E809F032
:10103000BB0B802DBF01FF2793585F4F3AF09E3FB7
:10104000510578F00C94D9080C9424095F3FE4F31F
:10105000983ED4F3869577956795B795F7959F5FFA
:10106000C9F7880F911D9695879597F90895E1E046
:10107000660F771F881FBB1F621773078407BA07A5
:1010800020F0621B730B840BBA0BEE1F88F7E09500
:1010900008950E94090988F09F5798F0B92F992761
:1010A000B751B0F0E1F0660F771F881F991F1AF053
:1010B000BA95C9F714C0B13091F00E942309B1E08C
:1010C00008950C942309672F782F8827B85F39F08B
:1010D000B93FCCF3869577956795B395D9F73EF4EC
:1010E00090958095709561957F4F8F4F9F4F089594
:1010F000E89409C097FB3EF49095809570956195B2
:101100007F4F8F4F9F4F9923A9F0F92F96E9BB2767
:101110009395F695879577956795B795F111F8CFE3
:10112000FAF4BB0F11F460FF1BC06F5F7F4F8F4F4E
:101130009F4F16C0882311F096E911C0772321F044
:101140009EE8872F762F05C0662371F096E8862FDC
:1011500070E060E02AF09A95660F771F881FDAF733
:10116000880F9695879597F90895990F0008550F60
:10117000AA0BE0E8FEEF16161706E807F907C0F01D
:1011800012161306E407F50798F0621B730B840B25
:10119000950B39F40A2661F0232B242B252B21F4FF
:1011A00008950A2609F4A140A6958FEF811D811D9F
:1011B000089597F99F6780E870E060E008959FEFD9
:1011C00080EC089500240A941616170618060906DE
:1011D000089500240A9412161306140605060895AD
:1011E000092E0394000C11F4882352F0BB0F40F435
:1011F000BF2B11F460FF04C06F5F7F4F8F4F9F4F75
:10120000089557FD9058440F551F59F05F3F71F0F6
:101210004795880F97FB991F61F09F3F79F087955D
:101220000895121613061406551FF2CF4695F1DFE6
:1012300008C0161617061806991FF1CF8695710576
:10124000610508940895E894BB2766277727CB01AA
:1012500097F908950E94B50808F48FEF08950E9449
:1012600042090C94F0080E94E20838F00E94E90854
:1012700020F0952311F00C94D9080C94DF08112468
:101280000C9424090E94010970F3959FC1F3950FF6
:1012900050E0551F629FF001729FBB27F00DB11DFA
:1012A000639FAA27F00DB11DAA1F649F6627B00D8A
:1012B000A11D661F829F2227B00DA11D621F739F73
:1012C000B00DA11D621F839FA00D611D221F749F81
:1012D0003327A00D611D231F849F600D211D822FC8
:1012E000762F6A2F11249F5750409AF0F1F08823EF
:1012F0004AF0EE0FFF1FBB1F661F771F881F91501C
:101300005040A9F79E3F510580F00C94D9080C94E9
:1013100024095F3FE4F3983ED4F38695779567956B
:10132000B795F795E7959F5FC1F7FE2B880F911D45
:101330009695879597F908950E94B508880B990BA3
:101340000895A1E21A2EAA1BBB1BFD010DC0AA1F06
:10135000BB1FEE1FFF1FA217B307E407F50720F01E
:10136000A21BB30BE40BF50B661F771F881F991F99
:101370001A9469F760957095809590959B01AC01E2
:10138000BD01CF010895EE0FFF1F0590F491E02DF0
:10139000099481E090E0F8940C94CE09F894FFCF82
:1013A0003D3D3D3D3D203D3D3D3D3D203D3D3D3DA7
:1013B0003D2061726475696E6F3A6D696E69203D9A
:1013C0003D3D3D3D203D3D3D3D3D203D3D3D3D3D87
:1013D000004379636C6520636F6D706C65746500A4
:1013E000000000002C018402ED007901BF00D9004B
:1013F000CB000D0A006E616E00696E66006F766646
:0E14000000000000004C0584021007130700D6
:00000001FF
